:020000040800F2
:1000000000180020CD380008D9330008DB33000881
:1000100000000000000000000000000000000000E0
:10002000000000000000000000000000DD330008B8
:100030000000000000000000DF330008E13300088A
:100040004D3900084D3900084D3900084D39000878
:100050004D3900084D3900084D3900084D39000868
:100060004D3900084D3900084D3900084D39000858
:100070004D3900084D3900084D3900084D39000848
:100080004D39000800000000000000004D39000854
:10009000000000004D3900084D3900084D390008B6
:1000A000000000004D3900084D3900084D390008A6
:1000B0004D390008000000004D390008E933000800
:1000C00010B5064C2378002B07D1054B002B02D02E
:1000D000044800E000BF0123237010BD5C01002034
:1000E00000000000A8390008044B10B5002B03D015
:1000F0000349044800E000BF10BDC04600000000F6
:1001000060010020A8390008002243088B4274D304
:1001100003098B425FD3030A8B4244D3030B8B4208
:1001200028D3030C8B420DD3FF22090212BA030C11
:100130008B4202D31212090265D0030B8B4219D3F2
:1001400000E0090AC30B8B4201D3CB03C01A524112
:10015000830B8B4201D38B03C01A5241430B8B425A
:1001600001D34B03C01A5241030B8B4201D30B0343
:10017000C01A5241C30A8B4201D3CB02C01A52416A
:10018000830A8B4201D38B02C01A5241430A8B422D
:1001900001D34B02C01A5241030A8B4201D30B0216
:1001A000C01A5241CDD2C3098B4201D3CB01C01A30
:1001B000524183098B4201D38B01C01A524143093A
:1001C0008B4201D34B01C01A524103098B4201D328
:1001D0000B01C01A5241C3088B4201D3CB00C01A95
:1001E000524183088B4201D38B00C01A524143080D
:1001F0008B4201D34B00C01A5241411A00D2014632
:10020000524110467047FFE701B5002000F006F8A4
:1002100002BDC0460029F7D076E770477047C04658
:1002200010B5040001F0F8FDFA218900FFF76CFF1A
:1002300000F060F8012000222100404200F020F888
:10024000002010BD10B5064A136810210B4313603F
:100250000020FFF7E5FF03F075F8002010BDC04651
:1002600000200240024A1368013313607047C04601
:100270009C030020014B18687047C0469C03002077
:1002800070B5002811DB8408134DC034A4006259F6
:1002900003231840C000FC331E008640B24389018E
:1002A0000B4083401343635170BDC0B20F22024024
:1002B000083A920806329200084BD3185D6803246E
:1002C0002040C000FF2214008440A54389010A4059
:1002D00082402A435A60E7E700E100E000ED00E0D9
:1002E0001F2318401E3B8340014A13607047C046DD
:1002F00000E100E001380A4B98420FD8094A5060EB
:100300000948036A1B021B0AC02109060B4303624A
:100310000023936007331360002070470120FCE73F
:10032000FFFFFF0010E000E000ED00E0F0B5C64682
:1003300000B582B000236EE084683440A446CC68E7
:10034000BC406246144384604468AC434A68120966
:10035000012515409D4025434560C46826408C68B2
:10036000BC403443C4604A68D20053D54A4DAE699C
:1003700001242643AE61AD692C400194019C9C0888
:10038000A51CAD00454EAF5903251D40AD000F26FD
:10039000AE40B7439026F605B04275D0404EB0420D
:1003A00074D0404EB0426DD00526AE4035003D437E
:1003B0000234A400394EA5513B4C25684246D44333
:1003C0002E0026404A68D20302D5424615432E002D
:1003D000354D2E606D682E0026404A68920302D586
:1003E000424615432E00304D6E60AD682E0026400B
:1003F0004A68D20202D5424615432E002A4DAE600D
:10040000ED682C404A68920202D542462A43140005
:10041000254AD46001330A681400DC4038D0012535
:100420009D402A409046F5D04C68022C01D0122CF9
:100430000ED1DC080834A400275807261E40B60059
:100440000F22B24097430A69B24016003E4326503D
:1004500002685F0003242600BE40F6433240944603
:100460004A681440BC406246144304604C68621EF3
:10047000012A00D860E7112C00D15DE7122C00D0D2
:100480006BE759E7022690E700268EE701268CE706
:1004900002B004BC9046F0BD0010024000000140D4
:1004A00000040048000800480004014070B5041E24
:1004B00058D0EA23FF33C35C002B05D0EA23FF3377
:1004C0000322E254002218E0E933FF330022C25431
:1004D00003F020F8F2E7D100891A8B00E318190025
:1004E00029310120087001390A7018002B300021D1
:1004F000017059639963D963013260689042EAD808
:10050000002214E0D100891A8B00E3181D000A357F
:10051000FF3500212970013D2A7003352970093506
:100520002960043529601D33FF3319600132904280
:10053000E8D8402301222168CA5200222168CA5209
:100540004421206842520C3120684252064A2168F8
:10055000CA5200221C3BE2540122EA23FF33E25438
:10056000002070BD0120FCE700BFFFFF016858229A
:100570008B5A034803439BB28B5200207047C046FE
:100580000080FFFFF4235B00C35C012B13D0F42336
:100590005B000122C25400290AD19D3BFF3B7F3200
:1005A0000168CA52F4235B000022C2540020704745
:1005B0002423C154F6E70220F9E70000F0B54DB25C
:1005C000002D65DB7F240C40E600361BB4000934A7
:1005D000FF3404197F2631402170ED0F6570E26011
:1005E000E370F4235B00C35C012B00D175E1F423BD
:1005F0005B000122C254E378012B00D174E0002B90
:100600004ED0022B59D0032B61D022789300016881
:100610008C4663441988B24D29400A43B1490A43C4
:100620001A80A37A002B00D0B5E06378002B00D1AC
:1006300067E0A28805685023EB5A2178C9005B184F
:100640005B198021C9008C46634401218A431A80CA
:1006500023789B000268944663441A88510604D5A7
:100660009F490A40A0490A431A80227892000368F1
:100670009C46624413889D490B4020214B40994978
:100680000B431380F4235B000022C2540020F0BD12
:100690007F240C40E600361BB4002834041999E787
:1006A00023789B000268944663441A88904911405D
:1006B000802292000A431A80A7E723789B000268F1
:1006C000944663441A888A490A401A809DE7237831
:1006D0009B000268944663441A8885491140C022F1
:1006E000D2000A431A8090E723789B000268944660
:1006F00063441A887E4911408022D2000A431A803E
:1007000083E7A28805685026AB5B2178C9005B1897
:100710005B1978498C46634401218A431A80016839
:100720008B5B2278D2009B185B18734A9446634413
:10073000E1683E2926D94A0992B2C90601D1013A97
:1007400092B2920292B26D490A431A8023789B00BA
:100750000268944663441A88510404D560490A40EB
:1007600067490A431A8023789B00026894466344D1
:100770001988644A1140C02292015140594A0A43E3
:100780001A807FE74A0892B2C90701D5013292B2B6
:1007900092021A80DAE723789B0002689446634449
:1007A0001A8859491140594A0A431A80E288056853
:1007B0005027EB5B2178C9005B185B198021C900C9
:1007C0008C4663440126B2431A8022890568EB5B9C
:1007D0002178C9005B185B1946498C466344B243D3
:1007E0001A806378002B3DD123789B0002689446E1
:1007F00063441A88510404D539490A4040490A43E0
:100800001A8023789B000268944663441A88510634
:1008100004D533490A4034490A431A8023789B009F
:100820000268944663441A882D4911402E4A0A43AF
:100830001A802178890003689C4661440B88314AFC
:100840001A40C0239B015340264A13430B80237850
:100850009B0001688C4663441988244C21400A435C
:100860001A800FE723789B000268944663441A8835
:10087000510404D51A490A4021490A431A802378B1
:100880009B000268944663441A88510604D51449B3
:100890000A4015490A431A8023789B00026894464F
:1008A00063441A880E491140154A0A431A80217878
:1008B000890003689C4661440B880C4A1340094A2E
:1008C00013430B8023789B0001688C46634419888E
:1008D0000C4C21400A431A80D4E60220D7E6C046D9
:1008E0000F0F00008080FFFFC080FFFFBF8FFFFF62
:1008F0008F89FFFF04040000060400000080FFFF52
:1009000080C0FFFF8FBFFFFF0F0E00008081FFFF41
:1009100010B54AB2002A3ADB7F230B40DC00E41A10
:10092000A3000933FF33C3187F2421401970D20F6D
:100930005A70F4225200825C012A00D1C1E0F422F4
:100940005200012181549A7A002A41D15A78002A12
:1009500025D01A78920001688C46624411884C06B2
:1009600004D5594C2140594C214311801B789B00E0
:100970000268944663441A8855491140554A0A430F
:100980001A80F4235B000022C254002010BD7F2394
:100990000B40DC00E41AA3002833C318C4E71A781C
:1009A000920001688C46624411884C0404D5464C80
:1009B0002140494C214311801B789B0002689446DA
:1009C00063441A8845491140424A0A431A80D8E7CD
:1009D0005A78002A3AD11A78920001688C4662440B
:1009E00011884C0404D5384C21403B4C21431180E4
:1009F0001A78920001688C46624411884C0604D52E
:100A0000314C2140314C214311801A789200016809
:100A10008C46624411882C4C0C402C492143118097
:100A20001C78A40002689446644422882B490A403A
:100A300028490A4322801B789B000268944663443D
:100A40001A88234C2240114319809AE71A789200A1
:100A500001688C46624411884C0404D51A4C21402C
:100A60001D4C214311801A78920001688C46624423
:100A700011884C0604D5144C2140144C214311809C
:100A80001A78920001688C46624411880E4C0C4022
:100A90001149214311801C78A400026894466444E3
:100AA00022880B490A400B490A4322801B789B008D
:100AB0000268944663441A88084C22401143198006
:100AC0005FE7022062E7C0460F0F0000C080FFFF13
:100AD000BF8FFFFF8080FFFF80C0FFFF8FBFFFFF42
:100AE00070B57F242140CD006D1AAC00041925009B
:100AF0001935FF352A6022001D32FF321360083598
:100B000000222A60173D2A7022000932FF3211703C
:100B10001534FF342268934240D9CD006D1AAC00E1
:100B200004191D34FF349B1A2360CC00641AA300FF
:100B30001C00C3181333FF331B78002B41D1056809
:100B40005033EB5A04190934FF342478E4001B199C
:100B50005B195E4CA44663443E2A29D95409A4B2C9
:100B6000D20601D1013CA4B2A402A4B2584A144353
:100B70001C800368CA00511A8A0080180930FF30AF
:100B8000027892009B181988524A1140C0229201A3
:100B90005140514A0A431A80002070BDCC00641AAB
:100BA000A20082181D32FF32002414601A00BCE734
:100BB0005408A4B2D20701D50134A4B2A4021C8007
:100BC000D7E7CC00641AA3001C00C3180A33FF3314
:100BD0001B78002B23D105685033EB5A04190934D4
:100BE000FF342478E4001B195B193C4CA446634491
:100BF0003E2A0BD95409A4B2D50601D1013CA4B2B6
:100C0000A402A4B2324D2C431C800AE05408A4B2C2
:100C1000D50701D50134A4B2A4021C8001E0012B48
:100C200024D0CC00641AA3001C00C3180A33FF337D
:100C30001B78002B35D105685033EB5A0419093461
:100C4000FF342478E4001B195B19204CA44663444C
:100C50003E2A1DD95409A4B2D20601D1013CA4B246
:100C6000A402A4B21A4A14431C8082E705684F33D9
:100C7000EB5ACE00761AB40004190934FF342478F4
:100C8000E4001B195B19154CA44663441A80C8E79D
:100C90005408A4B2D20701D50134A4B2A4021C8026
:100CA00067E7012B00D064E705684F33EB5ACE00AD
:100CB000761AB40004190934FF342478E4001B19AF
:100CC0005B19024CA44663441A8052E706040000F4
:100CD0000080FFFF8FBFFFFF8080FFFF0204000046
:100CE0007F231940CB00591A8B00C0182130FF30E8
:100CF0000088704710B5F4235B00C35C012B4DD016
:100D0000F4235B000122C2544CB2002C20DBCA0049
:100D1000521A93000933FF33C31801229A707E32AE
:100D200011401970E40F5C7000291AD18900036822
:100D30009C4661440A881A4B1A401A4B5A401A4B77
:100D400013430B80F4235B000022C254002010BD2B
:100D50006A3BFF3B0B40DA00D21A93002833C318DA
:100D6000DBE7002C0CD0890003689C4661440B88AB
:100D70000E4A1340102253400B4A13430B80E1E705
:100D8000890003689C4661440A88094B1A40802305
:100D90005B015A40044B13430B80D3E70220D6E794
:100DA000BFBFFFFF101000008080FFFFBF8FFFFF5D
:100DB0008FBFFFFF10B54AB2002A38DBCC00641A9F
:100DC000A3000933FF33C31800249C707F342140F3
:100DD0001970D20F5A70F4225200825C012A4AD054
:100DE000F4225200012181545A78002A27D01A781F
:100DF000920001688C46624411884C0604D51F4C51
:100E000021401F4C214311801A78920003689C46B0
:100E1000624413881B490B4030214B401A490B4355
:100E20001380F4235B000022C254002010BD7F23F6
:100E30000B40DC00E41AA3002833C318C4E71A7877
:100E4000920001688C46624411884C0404D50B4C16
:100E500021400E4C214311801B789B000268944670
:100E6000634419880A4A1140C02292015140064A3F
:100E70000A431A80D5E70220D8E7C0460F0F0000CA
:100E8000C080FFFFBF8FFFFF8080FFFF80C0FFFF9C
:100E90008FBFFFFF10B501335B0812188020C00020
:100EA0008446624407E008784C78240204431480A6
:100EB0000231013B0232002BF5D110BDF8B505001F
:100EC0007F240C40E000001B810069188A63CB631B
:100ED00000220A640A00293201201070013A1470BD
:100EE0004F6BBB4233D9DB1BCB63E200121B930079
:100EF0001A00EB1832331B78002B30D02868E20040
:100F0000121B9300EB1828331B789A00825A520662
:100F100074D5E600361BB200AA1829321278002ACE
:100F20003BD15032825ADB00D3181818614B9C46D3
:100F300060443E2F28D97B099BB2FA0601D1013BC0
:100F40009BB29B029BB25C4A1343038027E0E10003
:100F5000091B8A00AA180021D1631F00C5E7BFB290
:100F6000AE18B28D3B00B16B2868FFF793FF2A687B
:100F70005023D35A28363178C9005B189B184F4A42
:100F8000944663441F8082E07B089BB2FA0701D538
:100F900001339BB29B02038001E0012A24D0E200CE
:100FA000121B9300EB181A8EBBB2E100091B8E00D6
:100FB000AE19B16B2868FFF76DFF29363378002B27
:100FC00055D0012B63D1E200121B9300EB1828339C
:100FD0001B789B002A68944663441A88384911405C
:100FE000384A0A431A8052E04F32825ADB00D31843
:100FF0001818304B9C4660440780D0E7E600361B4B
:10100000B200AA1829321278002A1ED15032825A10
:10101000DB00D3181818294B9C4660443E2F0BD98F
:101020007B099BB2FA0601D1013B9BB29B029BB2AA
:10103000214A134303800AE07B089BB2FA0701D5DB
:1010400001339BB29B02038001E0012A05D0E2003C
:10105000121B9300EB18DA8DA6E74F32825ADB00A1
:10106000D3181818154B9C4660440780EFE7E20040
:10107000121B9300EB1828331B789B002A689446B8
:1010800063441A880E4911400F4A0A431A802A689D
:10109000E1000C1BA300ED1828352B789B00D2181B
:1010A00013880A490B4030214B4009490B431380F8
:1010B0000020F8BD060400000080FFFF02040000CD
:1010C0000F0F000080C0FFFFC080FFFFBF8FFFFF3A
:1010D0008080FFFF30B55D0812188020C000844674
:1010E000624406E014880C70240A4C70013D023200
:1010F0000231002DF6D1DB0701D513880B7030BD0E
:10110000F0B583B0050001AB00221A8028684423A3
:10111000C35A9BB26A46D3801BB2002B00DB39E274
:101120006B46DC880F231C4000D0B5E06B460633CD
:101130001B88DB064BD5028801AB1A801B881B0578
:1011400075D401AB1B881BB2002BDFDA0388CA4AB7
:101150001340038028685023C35A84225200AA5C9B
:10116000D2009B181B18C54A944663441B889B05F4
:101170009B0D2A000932FF329361002B00D077E0EB
:101180000021280002F0F0F92B6850229A5A9A1890
:10119000BA4B9C4662442B000933FF33D9683E2981
:1011A00071D94B099BB2C90601D1013B9BB29B028D
:1011B0009BB2B3490B43138029680A88B14B1A408C
:1011C000C0239B015A40B04B13430B809EE703881A
:1011D000AE4A1340038029685023CB5A2822AA5CC8
:1011E000D2009B185B18AA4A944663441B889B054F
:1011F0009B0D2B64AA6B94466344AB6300212800CB
:1012000002F0C1F92423EB5C002B00D17EE7EB6BED
:10121000002B00D07AE72422AB5C802149420B43AB
:10122000DBB2CC31286843520023AB546EE7502325
:10123000C35A84225200AA5CD2009B181B188F4A02
:10124000944663441B889B059B0D2A000932FF329C
:1012500093612900ED31FF319288FFF73BFF2A6847
:10126000138885490B401380280002F073F94DE77D
:10127000140092882169FFF72DFF2369A269944623
:10128000634423617CE74B089BB2C90701D5013356
:101290009BB29B0213808FE7A700C019028801ABA5
:1012A0001A801B881BB2002B31DB01AB1B881B068D
:1012B00000D42BE72B689C4667443B88734A134055
:1012C0003B80E200121B93001A00EB1832331B78AC
:1012D000002B00D0E2E028685033C35AAA1811004E
:1012E00028310978C9005B181B1869498C4663448A
:1012F0001B889B059B0D136400D1FDE0E200121BCF
:10130000910069188A8D896BFFF7C4FDF4E05A4B90
:101310001A400280E200121B93001A00EB181333EC
:10132000FF331B78002B1DD128685033C35A11009E
:10133000AA180932FF321278D2009B181B184F4AA4
:10134000944663441E88B605B60D34D06B181A0057
:101350000D32FF3212881933FF3319683300FFF75B
:10136000B9FE28E02868E200121B9300EB1809334D
:10137000FF331B789A00825A520456D55022825A63
:10138000DB00D3181B18424A944663441E88B605F6
:10139000B60D3BD1E200121B9300EB180933FF336B
:1013A0001B789B002A68944663441A883949114087
:1013B000394A0A431A803100E200121B9300EB18ED
:1013C00018002130FF300268921902601A001932A9
:1013D000FF3210688446664416601D33FF331B6875
:1013E000002B08D0E200121B900028181530FF30A7
:1013F0000268914234D2E200121B9300EB180933C9
:10140000FF331978280002F0AFF84EE7E200121B14
:101410009300EB181A000F32FF3212881933FF3392
:1014200019683300FFF756FEB4E75022825ADB00FA
:10143000D3181B18114A944663441E88B605B60D8E
:10144000A8D0E200121B9300EB181A001132FF32F1
:1014500012881933FF3319683300FFF73BFE99E711
:10146000E100091B8A00AA180932FF321178320004
:101470002800FFF735FB18E78F0F00000604000077
:101480000080FFFF8FBFFFFF8080FFFF0F8FFFFFF8
:10149000020400000F0F0000C080FFFF2868E20078
:1014A000121B9300EB1828331B789A00825A5206BD
:1014B0004DD55022825ADB00D3181B18374A944668
:1014C00063441B889B059B0DE100091B8A001100EA
:1014D000AA181364002B34D1E200121B9300EB18FE
:1014E00028331B789B002A68944663441A882C4949
:1014F00011402C4A0A431A8028685023C25AE1003E
:10150000091B8B00EB18190028310978C900521803
:10151000121822498C46624412889205920D1A6470
:10152000996B8C4662449A63DB6B002B28D1E300F5
:101530001C1BA300EB1828331978280002F023F8AD
:10154000E4E56918CA8D896BFFF7A4FCC4E7502253
:10155000825ADB00D3181B18134A944663441B8835
:101560009B059B0DE100091B8A001100AA1813645A
:10157000002BB1D069180A8E896BFFF78BFCABE7A3
:10158000E1000C1BA1006918283109782800FFF739
:1015900095FCBBE5002003B0F0BDC046020400008E
:1015A0000F0F000080C0FFFF0604000070B50400AC
:1015B00044230268D35A1BB2002B46DB2368442223
:1015C0009A5A520544D4236844229A5A520404D5A4
:1015D00044215A5A344802405A52236844229A5AA3
:1015E000920404D544215A5A304802405A52236882
:1015F00044229A5AD20438D4236844229A5A1205B3
:1016000013D54422995A2A48014099522068402310
:10161000C15A08252943C1522068C15A04252943CB
:10162000C15223689B5ADB0431D5236844229A5A5D
:10163000920530D4236844229A5AD20504D5442115
:101640005A5A1C4802405A5270BDFFF759FDB5E77F
:1016500044215A5A184802405A52200001F0A7FF6C
:1016600000212000FEF78EFFADE74022995A0420AA
:1016700081439952114B21688B52200001F0B6FF33
:10168000216844228B5A0E4803408B52B4E7200055
:1016900001F09AFFC9E744215A5A0A4802405A52B7
:1016A000200001F07DFFC5E7FFBFFFFFFFDFFFFF69
:1016B000FFF7FFFFFFFEFFFFFFFBFFFF00BDFFFF88
:1016C000FFEFFFFFFFFDFFFF10B50C060FD57F24D6
:1016D0002140CC00611A8C0028340019002A0DD05A
:1016E00001228272C3801B0C0381002010BDCC003C
:1016F000611A8C000934FF340019EFE7827283808D
:10170000F3E7000070B582B004000368DB072BD557
:10171000B34B5A680C231340042B1DD0B04B5A68AE
:101720000C231340082B0ED06368012B41D0002BF3
:1017300056D1AB4B1A68AB490A401A601A68AA49DD
:101740000A401A603BE0A64B5B68C022520213407D
:10175000802252029342E7D1A14B1B689B0303D521
:101760006368002B00D139E223689B0778D59C4B36
:101770005B680C221A4262D0994B5A680C231340C2
:10178000082B53D0E368002B00D18BE0944A1368F8
:1017900001210B431360FEF76DFD0500904B1B68A4
:1017A0009B0776D4FEF766FD401B0228F6D903207E
:1017B00017E28B4A116880235B020B431360636856
:1017C000002B25D0FEF756FD0500854B1B689B03BB
:1017D000CAD4FEF74FFD401B6428F6D9032000E26F
:1017E000052B09D07E4B1A687E490A401A601A6898
:1017F0007D490A401A60E2E7794B19688022D202DB
:101800000A431A601968802252020A431A60D6E716
:10181000FEF730FD0500724B1B689B03A4D5FEF755
:1018200029FD401B6428F6D90320DAE16C4B5B6884
:10183000C02252021340802212029342A2D1684B6E
:101840001B689B0704D5E368012B01D00120C8E188
:1018500063490B68F82293432269D20013430B605B
:1018600023681B0744D5E369002B2ED05C4A536ADA
:1018700001210B435362FEF7FDFC0500584B5B6AE8
:101880009B0735D4FEF7F6FC401B0228F6D903204F
:10189000A7E153490B68F82293432269D20013430E
:1018A0000B60DDE74E4A136801218B431360FEF79E
:1018B000E1FC05004A4B1B689B07D1D5FEF7DAFC1B
:1018C000401B0228F6D903208BE1454A536A0121C7
:1018D0008B435362FEF7CEFC0500414B5B6A9B07CE
:1018E00006D5FEF7C7FC401B0228F6D9032078E195
:1018F00023685B0700D47FE0394BDB69DB001DD434
:10190000374AD169802040050143D161D369034042
:101910000193019B0125354B1B68DB0510D5A3689E
:10192000012B21D0002B36D12D4B1A6A01218A437D
:101930001A621A6A03318A431A621AE00025EAE73A
:101940002A4A116880235B000B431360FEF792FC68
:101950000600264B1B68DB05E1D4FEF78BFC801BE1
:101960006428F6D903203CE11D4A136A01210B4388
:101970001362A368002B24D0FEF77CFC0600184BF2
:101980001B6A9B0736D4FEF775FC801B184B9842E8
:10199000F5D9032025E1052B09D0114B1A6A012145
:1019A0008A431A621A6A03318A431A62E1E70C4BCE
:1019B0001A6A04210A431A621A6A03390A431A622C
:1019C000D7E7FEF757FC0600054B1B6A9B0711D5AE
:1019D000FEF750FC801B064B9842F5D9032000E12E
:1019E00000100240FFFFFEFFFFFFFBFF0070004002
:1019F00088130000012D3AD02368DB0610D56369F7
:101A0000012B3AD0053358D1784A536B04218B43CC
:101A10005363536BF4318B43A169C9000B43536388
:101A200023689B0600D482E0704B5A680C23134055
:101A30000C2B60D06D4B5A680C231340082B53D0ED
:101A4000236A002B60D0694A516B80235B020B43F1
:101A50005363FEF70FFC0500644B5B6BDB0366D43E
:101A6000FEF708FC401B0228F6D90320B9E05F4AC4
:101A7000D3695F490B40D361BEE75C4B5A6B0421CD
:101A80000A435A635A6B03390A435A63FEF7F2FB5F
:101A90000500564B5B6B9B0706D4FEF7EBFB401B28
:101AA0000228F6D903209CE050494B6BF82293435F
:101AB000A269D20013434B63B2E74C4B5A6B04212B
:101AC0000A435A635A6B03398A435A63FEF7D2FBBF
:101AD0000500464B5B6B9B07A2D5FEF7CBFB401B7B
:101AE0000228F6D903207CE0404B5B68C0225202FA
:101AF00013409342A4D13D4B5B6BDB0317D5236AA4
:101B0000012B14D001206CE0384A536B39490B404B
:101B10005363FEF7AFFB0500344B5B6BDB0306D56D
:101B2000FEF7A8FB401B0228F6D9032059E0636AA0
:101B3000002B55D02D4A51680C220A40082A52D059
:101B4000022B12D0294A13682B490B401360FEF771
:101B500091FB0400254B1B689B013DD5FEF78AFBDA
:101B6000001B0228F6D903203BE0204A13682249D3
:101B70000B401360FEF77EFB05001C4B1B689B01AE
:101B800006D5FEF777FB401B0228F6D9032028E094
:101B9000164BDA6A0F218A43216B0A43DA625A68CC
:101BA00016490A40E16AA06A01430A435A6019686B
:101BB000802252040A431A60FEF75CFB04000B4BC0
:101BC0001B689B0106D4FEF755FB001B0228F6D9C3
:101BD000032006E0002004E0002002E0012000E0F5
:101BE000002002B070BD0120FBE7C046001002409B
:101BF000FFFFFFEFFFFFFEFFFFFFFFFEFF7FC2FFC4
:101C000030B589B004AA1F4B180032C832C2110087
:101C100002680A606A46103313CB13C21B68136054
:101C2000194B5A680C231340082B04D00C2B26D0D8
:101C3000164809B030BD910C0F23194004A8445C2C
:101C40001149C96A0B406946C95CC0235B021A404E
:101C500080235B029A4208D0C0235B029A4209D0DB
:101C60000A48FEF751FA6043E3E70848FEF74CFAEA
:101C70006043DEE70648FEF747FA6043D9E70448C9
:101C8000D7E7C046C03900080010024000127A00B1
:101C9000006CDC0270B505000C00594B1A6801237A
:101CA00013408B420BD256490B68012293432343C6
:101CB0000B600B681A40A24201D0012070BD2B6856
:101CC0009B0706D54F4A5368F0218B43A9680B4305
:101CD00053602B68DB0763D56B68012B09D0022B9F
:101CE00028D0032B2CD0474A1268920705D4012034
:101CF000E4E7444A126892037FD542494A680320C8
:101D0000824313434B60FEF7B5FA06006B68012B64
:101D10001CD0022B28D0032B34D03A4B5B680C220A
:101D20001A423DD0FEF7A6FA801B374B9842F4D9F1
:101D30000320C3E7334A12689201DED40120BDE7D5
:101D4000304A526BD203D8D40120B7E72D4B5A68E2
:101D50000C231340042B23D0FEF78CFA801B2A4B54
:101D60009842F3D90320A9E7264B5A680C23134065
:101D7000082B15D0FEF77EFA801B234B9842F3D92F
:101D800003209BE71F4B5A680C2313400C2B07D0F2
:101D9000FEF770FA801B1C4B9842F3D903208DE7A5
:101DA000174B1A6801231340A3420BD914490B683F
:101DB0000122934323430B600B681A40A24201D0D7
:101DC00001207BE72B685B0706D50E4A53680F4955
:101DD0000B40E9680B435360FFF712FF094B5A6849
:101DE00012090F2313400A4AD35CD840094B1860EC
:101DF0000020FEF715FA002060E701205EE7C046EC
:101E0000002002400010024088130000FFF8FFFF8E
:101E1000403A000814010020014B18687047C04682
:101E20001401002010B5FFF7F7FF044B5A68120A9F
:101E300007231340024AD35CD84010BD0010024073
:101E4000503A000870B582B004000368DB0335D552
:101E5000464BDB69DB005CD4444AD16980204005F5
:101E60000143D161D36903400193019B0125404B9C
:101E70001B68DB054FD53D4B1B6AC0229200134007
:101E800013D061680A409A420FD0384B186A394A19
:101E900002401E6A8021490231431962196A364E96
:101EA000314019621A62C30749D4304A136A314972
:101EB0000B4061680B431362012D4FD02368DB0791
:101EC00006D52A4A136B03218B43A1680B43136386
:101ED00023689B0606D5254A136B10218B43E168C6
:101EE0000B43136323689B0306D5204A136B8021A1
:101EF0008B4361690B43136323685B0533D51B4A2E
:101F0000136B40218B4321690B431363002002B004
:101F100070BD0025ABE7164A116880235B000B43B8
:101F20001360FEF7A7F90600114B1B68DB05A2D46E
:101F3000FEF7A0F9801B6428F6D90320E7E7FEF737
:101F400099F90600094B1B6A9B07AED4FEF792F97C
:101F5000801B0A4B9842F5D90320D8E7D36908497A
:101F60000B40D361AAE70020D1E7C0460010024031
:101F700000700040FFFCFFFFFFFFFEFF8813000022
:101F8000FFFFFFEF104B1969802212050A431A6107
:101F90001A690E490A401A61026843681A43836845
:101FA0001A43C3681343026912041A43084B5A6068
:101FB0001A6808490A40416909020A431A601A6806
:101FC00060210A431A60704700100240FFFFFFF7CC
:101FD000006C0040FFC0FFFF70B504008368026919
:101FE000134342691343C269134301680A68604896
:101FF000024013430B60226853685E490B40E1685E
:102000000B435360A269236A1A4321688B685A48BC
:10201000034013438B602568584B9D4220D0584B9A
:102020009D4231D0102380221202E16991422FD0CB
:10203000022B00D180E000D86EE0042B00D187E0B5
:10204000082B00D092E06168480880231B029C4660
:102050006044FEF759F80004000CE860002040E0FE
:10206000484B1A6B03231340012B09D0002B05D0DA
:10207000022B07D0032B09D01023D4E70023D2E78B
:102080000423D0E70823CEE70023CCE70223CAE7E6
:10209000022B27D00FD9042B2FD0082B39D16368FE
:1020A000580880235B029C4660446168FEF72CF868
:1020B00083B200200CE0002B2BD1FFF7B3FE4000D1
:1020C00063685B08C0186168FEF71EF883B20020E1
:1020D0000F22190091435B10083A13400B4322680A
:1020E000D36070BD63685808274B9C4660446168A4
:1020F000FEF70AF883B20020EAE7FFF781FD40000F
:1021000063685B08C0186168FDF7FEFF83B20020BA
:10211000DEE701200023DBE7002B27D1FFF782FE5B
:1021200063685B08C0186168FDF7EEFF2368000470
:10213000000CD8600020D4E761684808134B9C4627
:102140006044FDF7E1FF0004000CE8600020C8E7F0
:10215000FFF756FD63685B08C0186168FDF7D4FFA0
:1021600023680004000CD8600020BAE70120B8E71B
:10217000F369FFEFFFCFFFFFFFF4FFFF00380140DF
:1021800000440040001002400024F40000127A00D5
:10219000436ADB0706D5026853682C490B40816A05
:1021A0000B435360436A9B0706D50268536828496E
:1021B0000B40C16A0B435360436A5B0706D5026854
:1021C000536824490B40016B0B435360436A1B0760
:1021D00006D50268536820490B40416B0B4353609E
:1021E000436ADB0606D5026893681C490B40816B85
:1021F0000B439360436A9B0606D5026893681849AF
:102200000B40C16B0B439360436A5B060BD50268BE
:10221000536814490B40016C0B43536080235B03EC
:10222000026C9A420AD0436A1B0606D502685368BC
:102230000D490B40816C0B43536070470268536833
:102240000A490B40416C0B435360ECE7FFFFFDFF75
:10225000FFFFFEFFFFFFFBFFFF7FFFFFFFEFFFFF23
:10226000FFDFFFFFFFFFEFFFFFFFF7FFFFFF9FFF16
:10227000F0B5C64600B506000C0017009846069D4E
:102280003368DB6923401B1B5A425341BB421ED1BA
:102290006B1CF5D0002D05D0FDF7ECFF4346C01AAE
:1022A000A842EDD9326813680B490B4013603268BD
:1022B0009368A331FF318B43936020236922B35489
:1022C0000132B35448330022F254032000E00020CE
:1022D00004BC9046F0BDC0465FFEFFFFF0B585B080
:1022E00004000F0016001D006A23C35C202B00D0E1
:1022F00083E0002900D183E0002A00D182E080231E
:102300005B0182689A4221D06823E35C012B00D1F3
:102310007AE068230122E2540023E3666A33213223
:10232000E254FDF7A7FF03905823E6520233E6522A
:10233000A3688022520193420FD0002B1CD1236945
:10234000002B15D15C33FF22E25219E00369002B08
:10235000DAD1CB07D8D5012050E02369002B03D177
:102360005C332B4AE2520BE05C23FF22E25207E08F
:102370005C237F22E25203E080225205934202D086
:102380005C23E65A10E02369002B03D15C337F22E3
:10239000E252F5E75C233F22E252F1E723689B8C8F
:1023A000F2B213403B7001375A23E35A9BB2002B21
:1023B0001BD05A22A35A013B9BB2A3520095039B08
:1023C000002220212000FFF753FF00281ED1802388
:1023D0005B01A2689A42E1D12369002BDED1236818
:1023E0009B8C33403B800237DEE76A332022E25485
:1023F000023B0022E254002000E0022005B0F0BDC4
:102400000120FBE70120F9E70220F7E70320F5E7C9
:10241000FF01000030B583B004000023C366FDF760
:1024200029FF05002368174A93420AD02023692216
:10243000A3540132A35448330022E254002003B0D5
:1024400030BD1B681B0710D423681B685B07EDD5E4
:1024500080210D4B00932B000022C9032000FFF7C1
:1024600007FF0028E2D00320E9E78021064B009314
:102470000300002289032000FFF7FAFE0028E3D0C2
:102480000320DCE700380140FFFFFF0110B5041E08
:1024900030D06923C35C002B22D069232422E2546C
:1024A0002268136801218B4313602000FFF794FD1D
:1024B000012814D0636A002B18D1226853680E4992
:1024C0000B405360226893682A218B4393602268F3
:1024D000136829390B4313602000FFF79BFF10BDE1
:1024E00068330022C25400F045FFD6E72000FFF712
:1024F0004FFEE2E70120F2E7FFB7FFFF86239B00D4
:10250000C358002B05D0852292000021995000204D
:1025100070470220FCE7000010B586239B00C458DA
:102520000433C358002B0DD080229200A05CFF28FA
:1025300008D09B68044AA25C2100984780239B0036
:10254000FF22E254002010BD01020000432303805B
:1025500000487047000000204323038001484430B6
:102560007047C04600000020432303800148083024
:102570007047C046800000200A23038001484C3089
:102580007047C0468000002070B504008626B60063
:10259000855901F022F983239B00E850A359002BB1
:1025A0000BD087239B00E358DB6883229200A91895
:1025B000083AA8589847002070BD0220FCE70000A8
:1025C00070B505000C0086239B00C6580978B93BFE
:1025D000FF3B0B402AD0202B0AD1E288002A09D1E8
:1025E00087239B00C3589B6860780022210098478E
:1025F000002070BD49B200290CDAFD33FF33C35807
:102600009B68607831009847E2883100280000F02C
:10261000FAFCEDE7627880239B00F254E288074BD6
:10262000F254E288310000F004FDE1E763780A2B00
:10263000DED10122024900F0E6FCD9E701020000E8
:102640007801002070B50400812101F04CF80121CF
:10265000200001F048F88221200001F044F8862390
:102660009B00E358002B0BD087239B00E3585B684B
:1026700098478625AD00605901F0BAF800236351F0
:10268000002070BD70B50400037C002B34D1802580
:10269000AD002B000222812101F012F82B00022252
:1026A0000121200001F00CF80823032282212000E0
:1026B00001F006F88720800001F096F805008623D7
:1026C0009B00E05000282DD00433E3581B68984746
:1026D000002385229200AB500432AB50237C002BA8
:1026E00016D081239B00EA58C53BFF3B0121200007
:1026F00001F063F8002070BD40230222812100F028
:10270000DFFF402302220121200000F0D9FFCBE7A8
:102710008033143AAA589B000121200001F04DF8A3
:102720000020E8E70120E6E7002904D087239B008A
:10273000C150002070470220FCE786239B00C3584D
:10274000822080001950842189005A50002070474F
:1027500086239B00C258143BD1500020704710B50F
:1027600086239B00C258002A14D0043BD358002B68
:1027700001D0012010BD85239B000121D150043BD5
:10278000D35A8221890052588839FF3901F005F85F
:102790000020EFE70220EDE710B586239B00C2582A
:1027A000002A16D0037C002B09D081239B00D2582D
:1027B000C53BFF3B012101F000F8002010BD803334
:1027C0008121890052589B00012100F0F6FF002072
:1027D000F4E70220F2E710B5002816D085239B000D
:1027E000C358002B03D085239B000024C45000292C
:1027F00002D084239B00C150FE235B000121C15401
:10280000027000F009FF002010BD0220FCE7002943
:1028100004D085239B00C150002070470220FCE7B4
:1028200010B500F03DFF002010BD10B585239B00C2
:10283000C358002B07D01B689847002801D10020FF
:1028400010BD0220FCE70220FAE710B585239B00AB
:10285000C3585B689847002010BD000070B50400A5
:1028600082239B00C518280000F02CF9FA235B0096
:102870000122E250124BE25A163BE2501033E15C67
:10288000EA3BFF3B0B40012B0FD0002B07D0022B64
:1028900010D07F239943200000F035FF03E029008A
:1028A000200000F0B3FA002070BD2900200000F0E5
:1028B000D1FAF8E72900200000F0EBFAF3E7C04670
:1028C0000E02000010B504001300002929D1FA22DD
:1028D00052008258032A01D0002010BD421DFF3251
:1028E0009168D26891420FD885239B00C3581B6919
:1028F000002B05D0FE225200825C032A00D19847AB
:10290000200000F0AEFBE7E7891A0530FF30816058
:102910008A4200D90A0092B21900200000F099FB07
:10292000DAE785239B00C3589B69002BD4D0FE2295
:102930005200825C032ACFD19847CDE770B50400DE
:10294000130000294ED1FA2252008258022A06D0E2
:1029500080239B00E35C012B3FD0002070BDC26947
:10296000056AAA421ED8866929003000FDF752FC8C
:10297000002906D1B54204D8FC235B00E3589E42EF
:102980001DD385239B00E358DB68002B06D0FE2275
:102990005200A25C032A01D120009847200000F0D9
:1029A0006CFBD5E7521BC26192B2190000F039FBF3
:1029B000002300220021200000F0FFFEC8E70022D3
:1029C000200000F02EFBFC235B000022E2500023DD
:1029D0000021200000F0F1FEBAE780239B000022D6
:1029E000E254BAE785239B00C3585B69002BB4D03F
:1029F000FE225200825C032AAFD19847ADE770B542
:102A0000040040230022002100F05AFE40258823C4
:102A10005B00E550D03B00228021200000F050FEFA
:102A20002562FE235B000122E2541C33E358002B95
:102A300006D085239B00E3585B68217920009847E6
:102A4000002070BD017400207047FE235B00C15C54
:102A5000FE22FF328154FA3AFF3AC25400207047F6
:102A6000FE23FF33C25C013BC2540020704710B507
:102A7000FE235B00C35C032B01D0002010BD852327
:102A80009B00C358DB69002BF7D09847F5E703009C
:102A9000002002E00130C0B201331A78002AF9D1D7
:102AA000704710B504004B88012B0AD181239B008D
:102AB0000122C2501033C3589B689847200000F091
:102AC000D0FA10BD0B7803704B7843708B78CA78BE
:102AD00012029B1843800B794A7912029B1883805B
:102AE0008B79CA7912029B18C380704710B5040015
:102AF000802100F008FE0021200000F004FE10BD3F
:102B000030B583B004000D004A88130A072B00D9A2
:102B10008EE09B004F49CB589F4684239B00C358AF
:102B20001B68007C6A46911D98476B4606331B88DC
:102B3000002B03D0EA88002A00D07EE003B030BD2D
:102B4000037C002B09D185239B00C3589B6A6A46EE
:102B5000901D984702234370E7E785239B00C358E5
:102B6000DB6A6A46901D984702234370DDE7D2B2C4
:102B7000052A39D89200384B9B589F4684239B00E6
:102B8000C3585B68007C6A46911D9847CDE7842353
:102B90009B00C3589B68007C6A46911D9847C4E718
:102BA00084239B00C358DB68007C6A46911D9847CC
:102BB000BBE784239B00C3581B69007C6A46911DB8
:102BC0009847B2E784239B00C3585B69007C6A4640
:102BD000911D9847A9E784239B00C3589B69007CFB
:102BE0006A46911D9847A0E72900FFF77FFFA5E7F8
:102BF000037C002B07D185239B00C3585B6B6A467F
:102C0000901D984791E72900FFF770FF96E7037C36
:102C1000002B09D185239B00C3581B6B6A46901D6E
:102C200098470723437080E72900FFF75FFF85E798
:102C300029002000FFF75AFF80E7191C934200D9B2
:102C4000111C8AB26B46D9800100200000F0DBF92C
:102C500074E7C046E0390008003A000870B5040087
:102C60008B88002B22D1CB88002B1FD18B787F251E
:102C70001D40FE235B00C35C032B0FD0FF235B00D2
:102C8000C554290000F079FD200000F0EAF9002D7C
:102C900007D0FE235B000222E2540AE0FFF726FF82
:102CA00007E0FE235B000122E25402E02000FFF770
:102CB0001DFF70BD70B504000D008978284B197098
:102CC00001290AD8FE235B00C35C022B09D0032B29
:102CD0001ED02900FFF70AFF02E02900FFF706FFD8
:102CE00070BD002911D04160FE235B000322C25455
:102CF000FFF79BFD022803D0200000F0B2F9EFE7B8
:102D000029002000FFF7F2FEEAE700F0AAF9E7E762
:102D1000002911D0436899421ED0D9B2FFF795FD22
:102D20000F4B197861602000FFF77FFD02280ED05D
:102D3000200000F096F9D3E7FE235B000222C25484
:102D40004160FFF782FD200000F08BF9C8E7290001
:102D50002000FFF7CBFEC3E700F083F9C0E7C046D1
:102D60007901002010B5CB88012B09D1FE235B002F
:102D7000C35C022B07D0032B0DD0FFF7B7FE01E099
:102D8000FFF7B4FE10BD002383600100083101226B
:102D900000F039F9F6E7011D012200F034F9F1E7FE
:102DA00010B5FE235B00C35C023BDBB2012B0ED8E7
:102DB0000023C36081239B00C358002B01D0022352
:102DC000C36001000C31022200F01DF910BDFFF7B5
:102DD0008DFEFBE710B50400FE235B00C35C023BE5
:102DE000DBB2012B0ED84B88012B0AD181239B002B
:102DF0000022C2501033C3589B689847200000F04F
:102E000030F910BDFFF772FEFBE7000010B54B78FC
:102E1000092B19D89B000E4AD3589F46FFF770FE26
:102E2000002010BDFFF71AFFFAE7FFF743FFF7E7AF
:102E3000FFF798FFF4E7FFF7B3FFF1E7FFF731FE85
:102E4000EEE7FFF7C7FFEBE7FFF750FEE8E7C04606
:102E5000183A000870B504000D00FE235B00C35C47
:102E6000032B13D10B79012B0DD885239B00C3585D
:102E70009B689847EB88002B01D0002070BD200094
:102E800000F0EFF8F9E7FFF731FEF6E7FFF72EFE67
:102E9000F3E770B505000C008A88D1B22078602372
:102EA0000340202B08D1F533FF33EB589B682100FA
:102EB00028009847002070BD6378012B2CD0002B90
:102EC00052D0032BF6D1FA33FF33EB5C022B06D042
:102ED000032B0CD021002800FFF708FEEAE70029A9
:102EE000E8D08029E6D0280000F00DFCE2E76388F6
:102EF000002B06D1002904D0802902D0280000F040
:102F000002FC85239B00EB589B6821002800984712
:102F1000280000F0A6F8CDE7FE235B00EB5C022B57
:102F200006D0032B0CD021002800FFF7DFFDC1E7FE
:102F30000029BFD08029BDD0280000F0E4FBB9E70C
:102F40006388002BB6D14B0603D1280000F089F826
:102F5000B0E7280000F0E7FB85239B00EB589B6857
:102F6000210028009847F0E7FE235B00EB5C022B72
:102F700006D0032B0AD021002800FFF7B7FD99E700
:102F80004B0697D0280000F0BEFB93E7130612D43F
:102F90007F240C40103424012C190434280000F044
:102FA000D2FB00280ED0012323600222210028003A
:102FB00000F029F87EE77F240C40013424012C190D
:102FC0000434EBE700232360EFE770B504000D0045
:102FD0001600002816D0FFF75AFD0130400080B2DD
:102FE0003080287003236B70013B08E001345A1CC9
:102FF000D2B2E9540233DBB2AA1800211170217851
:103000000029F3D170BD10B51300FA22520002243A
:1030100084508361C3610A00002100F0BEFB0020E0
:1030200010BD10B513000A00002100F0B6FB00200F
:1030300010BD10B51300FA22520003248450EC3A5C
:103040008350043283500A00002100F0B6FB0020B8
:1030500010BD10B513000A00002100F0AEFB0020E7
:1030600010BD10B5FA235B000422C25000230022D9
:10307000002100F092FB002010BD10B5FA235B0088
:103080000522C25000230022002100F096FB002000
:1030900010BD000082B0064A5169802080020143C1
:1030A0005161536903400193019B02B07047C046D0
:1030B0000010024010B50948094B0360E1235B0290
:1030C000436000238360C360036104224261836123
:1030D000C36103624362FFF7D9F910BDA403002066
:1030E0000044004010B5254B00201856002804DA93
:1030F000234B1978002924D110BD8001214BC01821
:10310000402100F0EBF90028F6D11C4B5B785BB254
:10311000002B02DB1C4A0021D15418480023C3565F
:1031200043700133D917890F5A18032313405B1AD0
:103130005BB20370144AD35C012BDDD0FF22027016
:10314000DAE7587880010F4BC01889B200F0C6F951
:103150000028D1D1094B5B785BB2002B02DB0A4A15
:103160000021D154064A537804494B70013303219E
:103170000B40537000231370BEE7C04610010020BF
:103180007A01002014040020A003002070B5184A22
:1031900051781478631CDBB213708D01154A5219F3
:1031A0001055402B00D070BD4A1C3D3B1340D8B297
:1031B000114AD35C002B0BD00E4BD022EA545B1982
:1031C00020325A700A4BEE3A1A70FFF78BFFEAE78B
:1031D000094B01225A54094B1B785BB2013304D0CE
:1031E000034B587000221A70EFE7044B1970F7E791
:1031F0007A01002014040020A00300201001002008
:1032000030B59FB03022002112A800F0C5FB10227B
:1032100000210DA800F0C0FB1822002107A800F033
:10322000BBFB1822002101A800F0B6FB2025119558
:103230000123199311A8FEF765FA07230D93043BA8
:103240000E9300240F94109401210DA8FEF722FD87
:1032500080239B0207930C9407A8FEF7F3FD0C4A0A
:10326000D169802000050143D161D36903400093F7
:10327000009B019480239B0502930394054B0493C8
:1032800022230593069501A8FEF77CFE1FB030BDF2
:10329000001002407FBB000030B583B0FCF7D2FFC6
:1032A000FFF7AEFFFFF7F6FE00F0D6F8FFF702FFDC
:1032B000002303E0204A0021D1540133032BF9DD20
:1032C0000025002415E0FFF70DFF12E0002C0CD1C3
:1032D0006B4607331B78E02B0BD1012405E06B46CE
:1032E00007331B78D02B00D002246B46D879FFF728
:1032F0004DFF00230122694607311048FEF7EEFF1B
:103300000028E0D1012CEAD0E0DD022C0BD0032C08
:10331000EBD16B4607331B78D02B00D0013D002D3D
:10332000E3D12C00E1E76B4607331B78D02BDCD0D0
:103330001D000324D9E7C046A0030020A4030020F9
:103340007047000082B00A4B9969012211439961CC
:1033500099690A400092009ADA69802149050A4376
:10336000DA61DB690B400193019B02B07047C046F4
:103370000010024010B588B004001422002103A8F8
:1033800000F00AFB2268124B9A4201D008B010BD2F
:10339000104BD969802292021143D961D969114039
:1033A000019101995969114359615B691A4002926F
:1033B000029B0C2303930A3B049301330693023BC5
:1033C0000793902003A9C005FCF7B0FFDEE7C046D5
:1033D00000440040001002407047FEE7704770470D
:1033E00010B5FCF73FFF10BD10B50248FEF7DEF840
:1033F00010BDC046B8070020114B1A6801210A43CE
:103400001A605A680F4802405A601A680E48024013
:103410001A601A680D4802401A605A680C48024047
:103420005A60DA6A0F208243DA621A6B0948024056
:103430001A635A6B8A435A6300229A607047C046E7
:10344000001002400CB8FF08FFFFF6FEFFFFFBFF75
:10345000FFFFC0FF2CFEFFFF10B5094C00220949F9
:103460002000FFF7B8F908492000FFF7D0F9074915
:103470002000FFF759F92000FFF7D2F910BDC04630
:103480001405002040010020D80000201801002071
:10349000002070470020704710B50100044C200048
:1034A000FFF756F92000FFF777F9002010BDC0465E
:1034B0001405002010B5064C002206492000FFF735
:1034C0003CF905492000FFF743F9002010BDC04634
:1034D00014050020780700203807002010B50A4C9A
:1034E00086239B00E458043BE358002B01D00120C5
:1034F00010BD054C0A0001002000FFF71EF9200056
:10350000FFF72DF9F4E7C0461405002010B5FFF7CA
:1035100077FE10BD00B583B002680C4B9A4201D013
:1035200003B000BD0A4AD169802000040143D16183
:10353000D36903400193019B002200211F20FCF767
:103540009FFE1F20FCF7CCFEEAE7C046005C00406F
:103550000010024010B5010087239B00C058ED31D8
:10356000FF31FFF77BF910BD10B5030087229200F1
:103570008058CA00521A94001B191933FF331A6875
:10358000FFF7A0F910BD10B5030087229200805804
:10359000CA00521A94001B199A6BFFF7CFF910BD9D
:1035A00010B587239B00C058FFF761FA10BD70B5B6
:1035B00005008724A40001210059FFF743FA285988
:1035C000FFF71DFA70BD000010B5040087239B00B3
:1035D000C058FFF73AFAA369002B04D0024A1369D6
:1035E00006210B43136110BD00ED00E010B504008F
:1035F0008369002B05D187239B00E058FFF730FA41
:1036000010BD044A136906218B431361FFF77EFF47
:10361000F1E7C04600ED00E070B504001E488723C6
:103620009B00C4500433E0501C4B036008234360EC
:10363000022282600023C36002618361C36103626E
:10364000FCF734FF002823D18825AD001823002281
:1036500000216059FEF738F8582300228021605974
:10366000FEF732F8C023002281216059FEF72CF8C2
:1036700088235B00002201216059FEF725F860597C
:1036800080235B0000228221FEF71EF8002070BD1F
:10369000FFF756FED8E7C046B8070020005C0040A0
:1036A00010B588239B00C058FCF760FF002803D0AA
:1036B000022803D0022010BD0020FCE70120FAE719
:1036C00010B514001A0088239B00C0582300FCF793
:1036D00075FF002803D0022803D0022010BD00206F
:1036E000FCE70120FAE710B588239B00C058FDF7DE
:1036F0000FF9002803D0022803D0022010BD0020BB
:10370000FCE70120FAE710B588239B00C058FDF7BD
:10371000F1FA002803D0022803D0022010BD0020B7
:10372000FCE70120FAE710B588239B00C058FDF79D
:1037300041FB002803D0022803D0022010BD002046
:10374000FCE70120FAE70A0088239B00C35849B22E
:10375000002909DB7F211140CA00511A8A009B18F9
:103760000B33FF33187870477F211140C800411A8E
:103770008A009B182A331878F5E710B588239B0038
:10378000C058FCF7FFFE002803D0022803D0022017
:1037900010BD0020FCE70120FAE710B58824A40042
:1037A0000059FDF78BFB002803D0022803D002202C
:1037B00010BD0020FCE70120FAE710B58824A40022
:1037C0000059FDF78DF9002803D0022803D002200C
:1037D00010BD0020FCE70120FAE710B588239B000C
:1037E000C058FDF77DFA10BD004870477C010020ED
:1037F0007047000012230B8000487047280100200A
:1038000004230B80014814307047C0462801002073
:1038100010B50A00002805D005490648FFF7D5FB7A
:10382000034810BD02490348FFF7CFFBF8E7C04645
:10383000D8090020583A000810B50A00034C2100AE
:103840000348FFF7C2FB200010BDC046D809002086
:10385000643A000810B50A00002805D0054906485A
:10386000FFF7B3FB034810BD02490348FFF7ADFB68
:10387000F8E7C046D8090020743A000810B50A00DD
:10388000002805D005490648FFF79FFB034810BDF7
:1038900002490348FFF799FBF8E7C046D809002022
:1038A000783A000810B50A00002805D005490648F6
:1038B000FFF78BFB034810BD02490348FFF785FB68
:1038C000F8E7C046D8090020843A00081348854626
:1038D00013480168090E134A914205D11248134951
:1038E000016013481349016013481449144A002326
:1038F00002E0D458C4500433C4188C42F9D3114A9E
:10390000114C002301E013600432A242FBD3FFF705
:1039100073FD00F01DF8FFF7BFFCFEE70018002064
:10392000040000001F000000181002400100000009
:103930000000014000000000000000205C010020A9
:103940009C3A00085C010020E8090020FEE7000026
:1039500070B500260C4D0D4C641BA410A64209D175
:10396000002600F021F80A4D0A4C641BA410A64260
:1039700005D170BDB300EB5898470136EEE7B300B0
:10398000EB5898470136F2E7943A0008943A000859
:10399000943A0008983A000803001218934200D1A4
:1039A000704719700133F9E7F8B5C046F8BC08BC98
:1039B0009E467047F8B5C046F8BC08BC9E467047A6
:1039C00002030405060708090A0B0C0D0E0F101060
:1039D0000102030405060708090A0B0C0D0E0F105F
:1039E000302C00081A2B0008402B00086E2B000812
:1039F000302C0008302C0008F02B00080E2C00089A
:103A00007C2B00088E2B0008A02B0008B22B00088E
:103A1000C42B0008D62B0008362E0008422E0008C2
:103A2000482E00083C2E0008482E0008242E0008CE
:103A30001C2E0008482E0008302E00082A2E0008F0
:103A4000000000000000000001020304060708094E
:103A500000000000010203044A56534D6F6E697462
:103A60006F720000544F594F5348494D412D484FF4
:103A7000555345003000000043444320436F6E66B9
:103A80006967000043444320496E74657266616350
:043A900065000000CD
:043A9400E90000083D
:043A9800C100000861
:103A9C0009024300020100C03209040000010202C5
:103AAC000100052400100105240100010424020278
:103ABC000524060001070582030800100904010013
:103ACC00020A000000070501024000000705810200
:103ADC004000000009024300020100C0320904004A
:103AEC00000102020100052400100105240100015F
:103AFC0004240202052406000107058203080010B5
:103B0C0009040100020A000000070501020002007E
:103B1C00070581020002000009074300020104C0EE
:103B2C003209040000010202010005240010010505
:103B3C002401000104240202052406000107058269
:103B4C00030800FF09040100020A00000007050138
:103B5C000240000007058102400000000A06000236
:103B6C0000000040010000008526000845260008E2
:103B7C00C12500080000000019250008FD240008DC
:103B8C008925000800000000000000000000000073
:103B9C00592500084D2500086925000879250008DD
:103BAC00FFFF000000127A00B534000891340008C1
:103BBC0095340008993400081201000202020040FA
:103BCC0066662924000201020301000004030904B3
:103BDC00F53700080138000839380008113800089A
:0C3BEC00553800087D380008A538000896
:04000005080038CDEA
:00000001FF
